{
  "contractName": "ERC721Enumerable",
  "abi": [
    {
      "anonymous": false,
      "inputs": [
        {
          "indexed": true,
          "internalType": "address",
          "name": "from",
          "type": "address"
        },
        {
          "indexed": true,
          "internalType": "address",
          "name": "to",
          "type": "address"
        },
        {
          "indexed": true,
          "internalType": "uint256",
          "name": "tokenId",
          "type": "uint256"
        }
      ],
      "name": "Transfer",
      "type": "event"
    },
    {
      "inputs": [
        {
          "internalType": "address",
          "name": "_owner",
          "type": "address"
        }
      ],
      "name": "balanceOf",
      "outputs": [
        {
          "internalType": "uint256",
          "name": "",
          "type": "uint256"
        }
      ],
      "stateMutability": "view",
      "type": "function"
    },
    {
      "inputs": [
        {
          "internalType": "uint256",
          "name": "_tokenId",
          "type": "uint256"
        }
      ],
      "name": "ownerOf",
      "outputs": [
        {
          "internalType": "address",
          "name": "",
          "type": "address"
        }
      ],
      "stateMutability": "view",
      "type": "function"
    },
    {
      "inputs": [],
      "name": "totalSupply",
      "outputs": [
        {
          "internalType": "uint256",
          "name": "",
          "type": "uint256"
        }
      ],
      "stateMutability": "view",
      "type": "function"
    },
    {
      "inputs": [
        {
          "internalType": "uint256",
          "name": "_index",
          "type": "uint256"
        }
      ],
      "name": "tokenByIndex",
      "outputs": [
        {
          "internalType": "uint256",
          "name": "",
          "type": "uint256"
        }
      ],
      "stateMutability": "view",
      "type": "function"
    },
    {
      "inputs": [
        {
          "internalType": "address",
          "name": "_owner",
          "type": "address"
        },
        {
          "internalType": "uint256",
          "name": "_index",
          "type": "uint256"
        }
      ],
      "name": "tokenOfOwnerByIndex",
      "outputs": [
        {
          "internalType": "uint256",
          "name": "",
          "type": "uint256"
        }
      ],
      "stateMutability": "view",
      "type": "function"
    }
  ],
  "bytecode": "0x608060405234801561001057600080fd5b506108fa806100206000396000f3fe608060405234801561001057600080fd5b50600436106100575760003560e01c806318160ddd1461005c5780632f745c591461007a5780634f6ccce7146100aa5780636352211e146100da57806370a082311461010a575b600080fd5b61006461013a565b60405161007191906104fe565b60405180910390f35b610094600480360381019061008f91906105a8565b610147565b6040516100a191906104fe565b60405180910390f35b6100c460048036038101906100bf91906105e8565b6101f7565b6040516100d191906104fe565b60405180910390f35b6100f460048036038101906100ef91906105e8565b6102c4565b6040516101019190610624565b60405180910390f35b610124600480360381019061011f919061063f565b6103bd565b60405161013191906104fe565b60405180910390f35b6000600280549050905090565b6000610152836103bd565b8210610193576040517f08c379a000000000000000000000000000000000000000000000000000000000815260040161018a906106c9565b60405180910390fd5b600460008473ffffffffffffffffffffffffffffffffffffffff1673ffffffffffffffffffffffffffffffffffffffff16815260200190815260200160002082815481106101e4576101e36106e9565b5b9060005260206000200154905092915050565b60003073ffffffffffffffffffffffffffffffffffffffff166318160ddd6040518163ffffffff1660e01b8152600401602060405180830381865afa158015610244573d6000803e3d6000fd5b505050506040513d601f19601f82011682018060405250810190610268919061072d565b82106102a9576040517f08c379a00000000000000000000000000000000000000000000000000000000081526004016102a0906107a6565b60405180910390fd5b60036000838152602001908152602001600020549050919050565b60006102cf82610474565b61030e576040517f08c379a000000000000000000000000000000000000000000000000000000000815260040161030590610812565b60405180910390fd5b600080600084815260200190815260200160002060009054906101000a900473ffffffffffffffffffffffffffffffffffffffff169050600073ffffffffffffffffffffffffffffffffffffffff168173ffffffffffffffffffffffffffffffffffffffff16036103b4576040517f08c379a00000000000000000000000000000000000000000000000000000000081526004016103ab906108a4565b60405180910390fd5b80915050919050565b60008073ffffffffffffffffffffffffffffffffffffffff168273ffffffffffffffffffffffffffffffffffffffff160361042d576040517f08c379a0000000000000000000000000000000000000000000000000000000008152600401610424906108a4565b60405180910390fd5b600160008373ffffffffffffffffffffffffffffffffffffffff1673ffffffffffffffffffffffffffffffffffffffff168152602001908152602001600020549050919050565b60008060008084815260200190815260200160002060009054906101000a900473ffffffffffffffffffffffffffffffffffffffff169050600073ffffffffffffffffffffffffffffffffffffffff168173ffffffffffffffffffffffffffffffffffffffff161415915050919050565b6000819050919050565b6104f8816104e5565b82525050565b600060208201905061051360008301846104ef565b92915050565b600080fd5b600073ffffffffffffffffffffffffffffffffffffffff82169050919050565b60006105498261051e565b9050919050565b6105598161053e565b811461056457600080fd5b50565b60008135905061057681610550565b92915050565b610585816104e5565b811461059057600080fd5b50565b6000813590506105a28161057c565b92915050565b600080604083850312156105bf576105be610519565b5b60006105cd85828601610567565b92505060206105de85828601610593565b9150509250929050565b6000602082840312156105fe576105fd610519565b5b600061060c84828501610593565b91505092915050565b61061e8161053e565b82525050565b60006020820190506106396000830184610615565b92915050565b60006020828403121561065557610654610519565b5b600061066384828501610567565b91505092915050565b600082825260208201905092915050565b7f4f776e657220696e646578206973206f7574206f6620626f756e647321000000600082015250565b60006106b3601d8361066c565b91506106be8261067d565b602082019050919050565b600060208201905081810360008301526106e2816106a6565b9050919050565b7f4e487b7100000000000000000000000000000000000000000000000000000000600052603260045260246000fd5b6000815190506107278161057c565b92915050565b60006020828403121561074357610742610519565b5b600061075184828501610718565b91505092915050565b7f476c6f62616c20696e646578206973206f7574206f6620626f756e6473210000600082015250565b6000610790601e8361066c565b915061079b8261075a565b602082019050919050565b600060208201905081810360008301526107bf81610783565b9050919050565b7f546f6b656e20686173206e6f7420796574206265656e206d696e746564000000600082015250565b60006107fc601d8361066c565b9150610807826107c6565b602082019050919050565b6000602082019050818103600083015261082b816107ef565b9050919050565b7f4552433732313a206f776e657220717565727920666f72206e6f6e2d6578697360008201527f74656e7420746f6b656e00000000000000000000000000000000000000000000602082015250565b600061088e602a8361066c565b915061089982610832565b604082019050919050565b600060208201905081810360008301526108bd81610881565b905091905056fea26469706673582212208db36ecc7699565a767dbe87bc3454ea03ac867822dcbfe4c45e912203ccd46a64736f6c634300080e0033",
  "immutableReferences": {},
  "source": "// SPDX-License-Identifier: MIT\r\npragma solidity >=0.4.22 <0.9.0;\r\n\r\nimport \"./ERC721.sol\";\r\n\r\n// This is must for NFT market\r\n\r\ncontract ERC721Enumerable is ERC721 {\r\n    uint256[] private _allTokens;\r\n\r\n    // mapping from tokenId position in _allTokens array\r\n    //  Token  index\r\n    mapping(uint256 => uint256) private _allTokensIndex;\r\n\r\n    // mapping of owner to list of all owner token Ids\r\n    //  address  token id => list\r\n    mapping(address => uint256[]) private _ownedTokens;\r\n\r\n    // mapping from token ID to index of the owner tokens list\r\n    //  token id  address tokens list  => index\r\n    mapping(uint256 => uint256) private _ownedTokensIndex;\r\n\r\n    /// @notice Count NFTs tracked by this contract\r\n    /// @return A count of valid NFTs tracked by this contract, where each one of\r\n    ///  them has an assigned and queryable owner not equal to the zero address\r\n    function totalSupply() external view returns (uint256) {\r\n        return _allTokens.length;\r\n    }\r\n\r\n    // input _index ex. 1,2,3,4 => return token id of these indexs in _alltokenIndex\r\n    function tokenByIndex(uint256 _index) external view returns (uint256) {\r\n        require(_index < this.totalSupply(), \"Global index is out of bounds!\");\r\n        return _allTokensIndex[_index];\r\n    }\r\n\r\n    // input address _owner, index => transform index of tokenlist in one address to token ID\r\n    function tokenOfOwnerByIndex(address _owner, uint256 _index)\r\n        external\r\n        view\r\n        returns (uint256)\r\n    {\r\n        require(_index < balanceOf(_owner), \"Owner index is out of bounds!\");\r\n        return _ownedTokens[_owner][_index];\r\n    }\r\n\r\n    // override ERC721.sol _mint function\r\n    function _mint(address to, uint256 tokenId) internal override(ERC721) {\r\n        super._mint(to, tokenId);\r\n\r\n        // 1. add tokens to the owner\r\n        // 2. all tokens to our totalsupply - to allTokens\r\n\r\n        _addTokensToAllTokenEnumeration(tokenId);\r\n        _addTokensToOwnerEnumeration(to, tokenId);\r\n    }\r\n\r\n    // add tokens to the _alltokens array and set the position of the tokens index\r\n    function _addTokensToAllTokenEnumeration(uint256 tokenId) private {\r\n        _allTokensIndex[tokenId] = _allTokens.length;\r\n        _allTokens.push(tokenId);\r\n    }\r\n\r\n    function _addTokensToOwnerEnumeration(address to, uint256 tokenId) private {\r\n        // 1. add address and token id to the  _ownedTokens\r\n        // 2. _ownedTokensIndex tokenId set to address of owendTokens position\r\n        // excute this function with minting\r\n\r\n        _ownedTokensIndex[tokenId] = _ownedTokens[to].length;\r\n        _ownedTokens[to].push(tokenId);\r\n    }\r\n}\r\n",
  "sourcePath": "C:\\Users\\gaman\\Desktop\\nft\\src\\contracts\\ERC721Enumerable.sol",
  "compiler": {
    "name": "solc",
    "version": "0.8.14+commit.80d49f37.Emscripten.clang"
  },
  "schemaVersion": "3.4.7",
  "updatedAt": "2022-06-06T08:33:08.763Z",
  "devdoc": {
    "kind": "dev",
    "methods": {
      "balanceOf(address)": {
        "details": "NFTs assigned to the zero address are considered invalid, and this  function throws for queries about the zero address.",
        "params": {
          "_owner": "An address for whom to query the balance"
        },
        "returns": {
          "_0": "The number of NFTs owned by `_owner`, possibly zero"
        }
      },
      "ownerOf(uint256)": {
        "details": "NFTs assigned to zero address are considered invalid, and queries  about them do throw.",
        "params": {
          "_tokenId": "The identifier for an NFT"
        },
        "returns": {
          "_0": "The address of the owner of the NFT"
        }
      },
      "totalSupply()": {
        "returns": {
          "_0": "A count of valid NFTs tracked by this contract, where each one of  them has an assigned and queryable owner not equal to the zero address"
        }
      }
    },
    "version": 1
  },
  "userdoc": {
    "kind": "user",
    "methods": {
      "balanceOf(address)": {
        "notice": "Count all NFTs assigned to an owner"
      },
      "ownerOf(uint256)": {
        "notice": "Find the owner of an NFT"
      },
      "totalSupply()": {
        "notice": "Count NFTs tracked by this contract"
      }
    },
    "version": 1
  }
}