{
  "contractName": "ERC721",
  "abi": [
    {
      "anonymous": false,
      "inputs": [
        {
          "indexed": true,
          "internalType": "address",
          "name": "from",
          "type": "address"
        },
        {
          "indexed": true,
          "internalType": "address",
          "name": "to",
          "type": "address"
        },
        {
          "indexed": true,
          "internalType": "uint256",
          "name": "tokenId",
          "type": "uint256"
        }
      ],
      "name": "Transfer",
      "type": "event"
    },
    {
      "inputs": [
        {
          "internalType": "address",
          "name": "_owner",
          "type": "address"
        }
      ],
      "name": "balanceOf",
      "outputs": [
        {
          "internalType": "uint256",
          "name": "",
          "type": "uint256"
        }
      ],
      "stateMutability": "view",
      "type": "function"
    },
    {
      "inputs": [
        {
          "internalType": "uint256",
          "name": "_tokenId",
          "type": "uint256"
        }
      ],
      "name": "ownerOf",
      "outputs": [
        {
          "internalType": "address",
          "name": "",
          "type": "address"
        }
      ],
      "stateMutability": "view",
      "type": "function"
    },
    {
      "inputs": [
        {
          "internalType": "address",
          "name": "_from",
          "type": "address"
        },
        {
          "internalType": "address",
          "name": "_to",
          "type": "address"
        },
        {
          "internalType": "uint256",
          "name": "_tokenId",
          "type": "uint256"
        }
      ],
      "name": "transferFrom",
      "outputs": [],
      "stateMutability": "nonpayable",
      "type": "function"
    }
  ],
  "bytecode": "0x608060405234801561001057600080fd5b50610a3d806100206000396000f3fe608060405234801561001057600080fd5b50600436106100415760003560e01c806323b872dd146100465780636352211e1461006257806370a0823114610092575b600080fd5b610060600480360381019061005b919061063d565b6100c2565b005b61007c60048036038101906100779190610690565b6100d2565b60405161008991906106cc565b60405180910390f35b6100ac60048036038101906100a791906106e7565b6101cb565b6040516100b99190610723565b60405180910390f35b6100cd838383610282565b505050565b60006100dd82610533565b61011c576040517f08c379a00000000000000000000000000000000000000000000000000000000081526004016101139061079b565b60405180910390fd5b600080600084815260200190815260200160002060009054906101000a900473ffffffffffffffffffffffffffffffffffffffff169050600073ffffffffffffffffffffffffffffffffffffffff168173ffffffffffffffffffffffffffffffffffffffff16036101c2576040517f08c379a00000000000000000000000000000000000000000000000000000000081526004016101b99061082d565b60405180910390fd5b80915050919050565b60008073ffffffffffffffffffffffffffffffffffffffff168273ffffffffffffffffffffffffffffffffffffffff160361023b576040517f08c379a00000000000000000000000000000000000000000000000000000000081526004016102329061082d565b60405180910390fd5b600160008373ffffffffffffffffffffffffffffffffffffffff1673ffffffffffffffffffffffffffffffffffffffff168152602001908152602001600020549050919050565b600073ffffffffffffffffffffffffffffffffffffffff168273ffffffffffffffffffffffffffffffffffffffff16036102f1576040517f08c379a00000000000000000000000000000000000000000000000000000000081526004016102e890610899565b60405180910390fd5b8273ffffffffffffffffffffffffffffffffffffffff163073ffffffffffffffffffffffffffffffffffffffff16636352211e836040518263ffffffff1660e01b81526004016103419190610723565b602060405180830381865afa15801561035e573d6000803e3d6000fd5b505050506040513d601f19601f8201168201806040525081019061038291906108ce565b73ffffffffffffffffffffffffffffffffffffffff16146103d8576040517f08c379a00000000000000000000000000000000000000000000000000000000081526004016103cf90610947565b60405180910390fd5b8160008083815260200190815260200160002060006101000a81548173ffffffffffffffffffffffffffffffffffffffff021916908373ffffffffffffffffffffffffffffffffffffffff160217905550600160008473ffffffffffffffffffffffffffffffffffffffff1673ffffffffffffffffffffffffffffffffffffffff168152602001908152602001600020600081548092919061047990610996565b9190505550600160008373ffffffffffffffffffffffffffffffffffffffff1673ffffffffffffffffffffffffffffffffffffffff16815260200190815260200160002060008154809291906104ce906109bf565b9190505550808273ffffffffffffffffffffffffffffffffffffffff168473ffffffffffffffffffffffffffffffffffffffff167fddf252ad1be2c89b69c2b068fc378daa952ba7f163c4a11628f55a4df523b3ef60405160405180910390a4505050565b60008060008084815260200190815260200160002060009054906101000a900473ffffffffffffffffffffffffffffffffffffffff169050600073ffffffffffffffffffffffffffffffffffffffff168173ffffffffffffffffffffffffffffffffffffffff161415915050919050565b600080fd5b600073ffffffffffffffffffffffffffffffffffffffff82169050919050565b60006105d4826105a9565b9050919050565b6105e4816105c9565b81146105ef57600080fd5b50565b600081359050610601816105db565b92915050565b6000819050919050565b61061a81610607565b811461062557600080fd5b50565b60008135905061063781610611565b92915050565b600080600060608486031215610656576106556105a4565b5b6000610664868287016105f2565b9350506020610675868287016105f2565b925050604061068686828701610628565b9150509250925092565b6000602082840312156106a6576106a56105a4565b5b60006106b484828501610628565b91505092915050565b6106c6816105c9565b82525050565b60006020820190506106e160008301846106bd565b92915050565b6000602082840312156106fd576106fc6105a4565b5b600061070b848285016105f2565b91505092915050565b61071d81610607565b82525050565b60006020820190506107386000830184610714565b92915050565b600082825260208201905092915050565b7f546f6b656e20686173206e6f7420796574206265656e206d696e746564000000600082015250565b6000610785601d8361073e565b91506107908261074f565b602082019050919050565b600060208201905081810360008301526107b481610778565b9050919050565b7f4552433732313a206f776e657220717565727920666f72206e6f6e2d6578697360008201527f74656e7420746f6b656e00000000000000000000000000000000000000000000602082015250565b6000610817602a8361073e565b9150610822826107bb565b604082019050919050565b600060208201905081810360008301526108468161080a565b9050919050565b7f4c6f636174696f6e2061646472657373206973206e6f74206578697374730000600082015250565b6000610883601e8361073e565b915061088e8261084d565b602082019050919050565b600060208201905081810360008301526108b281610876565b9050919050565b6000815190506108c8816105db565b92915050565b6000602082840312156108e4576108e36105a4565b5b60006108f2848285016108b9565b91505092915050565b7f4e6f7420612076616c6964206164647265737300000000000000000000000000600082015250565b600061093160138361073e565b915061093c826108fb565b602082019050919050565b6000602082019050818103600083015261096081610924565b9050919050565b7f4e487b7100000000000000000000000000000000000000000000000000000000600052601160045260246000fd5b60006109a182610607565b9150600082036109b4576109b3610967565b5b600182039050919050565b60006109ca82610607565b91507fffffffffffffffffffffffffffffffffffffffffffffffffffffffffffffffff82036109fc576109fb610967565b5b60018201905091905056fea264697066735822122070f7f62b8c9c422d0ca29e0cbdffa982d67b21bed6e7b73b4ba26bebe0ae36ba64736f6c634300080f0033",
  "immutableReferences": {},
  "source": "// SPDX-License-Identifier: MIT\r\npragma solidity >=0.4.22 <0.9.0;\r\n\r\n/*\r\n    a. nft address\r\n    b. track of the token ids\r\n    c. keep track of token owner address to token ids\r\n    d. keep track of how many tokens an owner address has\r\n    e. create an event that emit a transfer log\r\n*/\r\n\r\ncontract ERC721 {\r\n    event Transfer(\r\n        address indexed from,\r\n        address indexed to,\r\n        uint256 indexed tokenId\r\n    );\r\n\r\n    // Mapping from token id to the onwer\r\n    mapping(uint256 => address) private _tokenOwner;\r\n\r\n    // Mapping from onwer to number of owned tokens\r\n    mapping(address => uint256) private _OwnedTokensCount;\r\n\r\n    // Mapping from token id to approved address\r\n    mapping(uint256 => address) private _tokenApprovals;\r\n\r\n    /// @param _owner An address for whom to query the balance\r\n    /// @return The number of NFTs owned by `_owner`, possibly zero\r\n    function balanceOf(address _owner) public view returns (uint256) {\r\n        require(\r\n            _owner != address(0),\r\n            \"ERC721: owner query for non-existent token\"\r\n        );\r\n        return _OwnedTokensCount[_owner];\r\n    }\r\n\r\n    /// @param _tokenId The identifier for an NFT\r\n    /// @return The address of the owner of the NFT\r\n    function ownerOf(uint256 _tokenId) external view returns (address) {\r\n        require(_exists(_tokenId), \"Token has not yet been minted\");\r\n        address owner = _tokenOwner[_tokenId];\r\n        require(\r\n            owner != address(0),\r\n            \"ERC721: owner query for non-existent token\"\r\n        );\r\n        return owner;\r\n    }\r\n\r\n    function _exists(uint256 tokenId) internal view returns (bool) {\r\n        address owner = _tokenOwner[tokenId];\r\n        return owner != address(0);\r\n    }\r\n\r\n    // virtual _mint function, be overrided in ERC721Enumerable.sol\r\n    function _mint(address to, uint256 tokenId) internal virtual {\r\n        // address(0) -> 0x000000\r\n        require(to != address(0), \"ERC721: minting to the zero address\");\r\n        require(!_exists(tokenId), \"ERC721: token  already exist\");\r\n\r\n        _tokenOwner[tokenId] = to;\r\n        _OwnedTokensCount[to]++;\r\n\r\n        emit Transfer(address(0), to, tokenId);\r\n    }\r\n\r\n    /// @param _from The current owner of the NFT\r\n    /// @param _to The new owner\r\n    /// @param _tokenId The NFT to transfer\r\n    function _transferFrom(\r\n        address _from,\r\n        address _to,\r\n        uint256 _tokenId\r\n    ) internal {\r\n        // 4. add the safe functionality :\r\n        // a. require that the address receiving a token is not a zero address\r\n        // b. require the address transfering the token actually owns the token\r\n        require(_to != address(0), \"Location address is not exists\");\r\n        require(this.ownerOf(_tokenId) == _from, \"Not a valid address\");\r\n\r\n        // 1. add the token id to the address receiving the token\r\n        _tokenOwner[_tokenId] = _to;\r\n\r\n        // 2. update the balance of the address _from\r\n        // 3. update the balance of the address _to\r\n        _OwnedTokensCount[_from]--;\r\n        _OwnedTokensCount[_to]++;\r\n\r\n        emit Transfer(_from, _to, _tokenId);\r\n    }\r\n\r\n    function transferFrom(\r\n        address _from,\r\n        address _to,\r\n        uint256 _tokenId\r\n    ) public {\r\n        _transferFrom(_from, _to, _tokenId);\r\n    }\r\n}\r\n",
  "sourcePath": "C:\\Users\\gaman\\Desktop\\nft\\src\\contracts\\ERC721.sol",
  "compiler": {
    "name": "solc",
    "version": "0.8.15+commit.e14f2714.Emscripten.clang"
  },
  "schemaVersion": "3.4.7",
  "updatedAt": "2022-06-18T09:45:25.704Z",
  "devdoc": {
    "kind": "dev",
    "methods": {
      "balanceOf(address)": {
        "params": {
          "_owner": "An address for whom to query the balance"
        },
        "returns": {
          "_0": "The number of NFTs owned by `_owner`, possibly zero"
        }
      },
      "ownerOf(uint256)": {
        "params": {
          "_tokenId": "The identifier for an NFT"
        },
        "returns": {
          "_0": "The address of the owner of the NFT"
        }
      }
    },
    "version": 1
  },
  "userdoc": {
    "kind": "user",
    "methods": {},
    "version": 1
  }
}