{
  "contractName": "KryptoBird",
  "abi": [
    {
      "inputs": [],
      "stateMutability": "nonpayable",
      "type": "constructor"
    },
    {
      "anonymous": false,
      "inputs": [
        {
          "indexed": true,
          "internalType": "address",
          "name": "from",
          "type": "address"
        },
        {
          "indexed": true,
          "internalType": "address",
          "name": "to",
          "type": "address"
        },
        {
          "indexed": true,
          "internalType": "uint256",
          "name": "tokenId",
          "type": "uint256"
        }
      ],
      "name": "Transfer",
      "type": "event"
    },
    {
      "inputs": [
        {
          "internalType": "uint256",
          "name": "",
          "type": "uint256"
        }
      ],
      "name": "KryptoBirdz",
      "outputs": [
        {
          "internalType": "string",
          "name": "",
          "type": "string"
        }
      ],
      "stateMutability": "view",
      "type": "function",
      "constant": true
    },
    {
      "inputs": [
        {
          "internalType": "address",
          "name": "_owner",
          "type": "address"
        }
      ],
      "name": "balanceOf",
      "outputs": [
        {
          "internalType": "uint256",
          "name": "",
          "type": "uint256"
        }
      ],
      "stateMutability": "view",
      "type": "function",
      "constant": true
    },
    {
      "inputs": [],
      "name": "name",
      "outputs": [
        {
          "internalType": "string",
          "name": "",
          "type": "string"
        }
      ],
      "stateMutability": "view",
      "type": "function",
      "constant": true
    },
    {
      "inputs": [
        {
          "internalType": "uint256",
          "name": "_tokenId",
          "type": "uint256"
        }
      ],
      "name": "ownerOf",
      "outputs": [
        {
          "internalType": "address",
          "name": "",
          "type": "address"
        }
      ],
      "stateMutability": "view",
      "type": "function",
      "constant": true
    },
    {
      "inputs": [],
      "name": "symbol",
      "outputs": [
        {
          "internalType": "string",
          "name": "",
          "type": "string"
        }
      ],
      "stateMutability": "view",
      "type": "function",
      "constant": true
    },
    {
      "inputs": [
        {
          "internalType": "uint256",
          "name": "_index",
          "type": "uint256"
        }
      ],
      "name": "tokenByIndex",
      "outputs": [
        {
          "internalType": "uint256",
          "name": "",
          "type": "uint256"
        }
      ],
      "stateMutability": "view",
      "type": "function",
      "constant": true
    },
    {
      "inputs": [
        {
          "internalType": "address",
          "name": "_owner",
          "type": "address"
        },
        {
          "internalType": "uint256",
          "name": "_index",
          "type": "uint256"
        }
      ],
      "name": "tokenOfOwnerByIndex",
      "outputs": [
        {
          "internalType": "uint256",
          "name": "",
          "type": "uint256"
        }
      ],
      "stateMutability": "view",
      "type": "function",
      "constant": true
    },
    {
      "inputs": [],
      "name": "totalSupply",
      "outputs": [
        {
          "internalType": "uint256",
          "name": "",
          "type": "uint256"
        }
      ],
      "stateMutability": "view",
      "type": "function",
      "constant": true
    },
    {
      "inputs": [
        {
          "internalType": "address",
          "name": "_from",
          "type": "address"
        },
        {
          "internalType": "address",
          "name": "_to",
          "type": "address"
        },
        {
          "internalType": "uint256",
          "name": "_tokenId",
          "type": "uint256"
        }
      ],
      "name": "transferFrom",
      "outputs": [],
      "stateMutability": "nonpayable",
      "type": "function"
    },
    {
      "inputs": [
        {
          "internalType": "string",
          "name": "_kryptoBird",
          "type": "string"
        }
      ],
      "name": "mint",
      "outputs": [],
      "stateMutability": "nonpayable",
      "type": "function"
    }
  ],
  "bytecode": "0x60806040523480156200001157600080fd5b506040518060400160405280600a81526020017f4b727970746f42697264000000000000000000000000000000000000000000008152506040518060400160405280600381526020017f4a415900000000000000000000000000000000000000000000000000000000008152508181816000908162000091919062000328565b508060019081620000a3919062000328565b50505050506200040f565b600081519050919050565b7f4e487b7100000000000000000000000000000000000000000000000000000000600052604160045260246000fd5b7f4e487b7100000000000000000000000000000000000000000000000000000000600052602260045260246000fd5b600060028204905060018216806200013057607f821691505b602082108103620001465762000145620000e8565b5b50919050565b60008190508160005260206000209050919050565b60006020601f8301049050919050565b600082821b905092915050565b600060088302620001b07fffffffffffffffffffffffffffffffffffffffffffffffffffffffffffffffff8262000171565b620001bc868362000171565b95508019841693508086168417925050509392505050565b6000819050919050565b6000819050919050565b60006200020962000203620001fd84620001d4565b620001de565b620001d4565b9050919050565b6000819050919050565b6200022583620001e8565b6200023d620002348262000210565b8484546200017e565b825550505050565b600090565b6200025462000245565b620002618184846200021a565b505050565b5b8181101562000289576200027d6000826200024a565b60018101905062000267565b5050565b601f821115620002d857620002a2816200014c565b620002ad8462000161565b81016020851015620002bd578190505b620002d5620002cc8562000161565b83018262000266565b50505b505050565b600082821c905092915050565b6000620002fd60001984600802620002dd565b1980831691505092915050565b6000620003188383620002ea565b9150826002028217905092915050565b6200033382620000ae565b67ffffffffffffffff8111156200034f576200034e620000b9565b5b6200035b825462000117565b620003688282856200028d565b600060209050601f831160018114620003a057600084156200038b578287015190505b6200039785826200030a565b86555062000407565b601f198416620003b0866200014c565b60005b82811015620003da57848901518255600182019150602085019450602081019050620003b3565b86831015620003fa5784890151620003f6601f891682620002ea565b8355505b6001600288020188555050505b505050505050565b611b75806200041f6000396000f3fe608060405234801561001057600080fd5b506004361061009e5760003560e01c80636352211e116100665780636352211e1461015b57806370a082311461018b57806395d89b41146101bb578063a3a1ff58146101d9578063d85d3d27146102095761009e565b806306fdde03146100a357806318160ddd146100c157806323b872dd146100df5780632f745c59146100fb5780634f6ccce71461012b575b600080fd5b6100ab610225565b6040516100b89190610ee6565b60405180910390f35b6100c96102b7565b6040516100d69190610f21565b60405180910390f35b6100f960048036038101906100f49190610fda565b6102c4565b005b6101156004803603810190610110919061102d565b6102d4565b6040516101229190610f21565b60405180910390f35b6101456004803603810190610140919061106d565b610384565b6040516101529190610f21565b60405180910390f35b6101756004803603810190610170919061106d565b610451565b60405161018291906110a9565b60405180910390f35b6101a560048036038101906101a091906110c4565b61054b565b6040516101b29190610f21565b60405180910390f35b6101c3610602565b6040516101d09190610ee6565b60405180910390f35b6101f360048036038101906101ee919061106d565b610694565b6040516102009190610ee6565b60405180910390f35b610223600480360381019061021e9190611226565b610740565b005b6060600080546102349061129e565b80601f01602080910402602001604051908101604052809291908181526020018280546102609061129e565b80156102ad5780601f10610282576101008083540402835291602001916102ad565b820191906000526020600020905b81548152906001019060200180831161029057829003601f168201915b5050505050905090565b6000600580549050905090565b6102cf83838361083c565b505050565b60006102df8361054b565b8210610320576040517f08c379a00000000000000000000000000000000000000000000000000000000081526004016103179061131b565b60405180910390fd5b600760008473ffffffffffffffffffffffffffffffffffffffff1673ffffffffffffffffffffffffffffffffffffffff16815260200190815260200160002082815481106103715761037061133b565b5b9060005260206000200154905092915050565b60003073ffffffffffffffffffffffffffffffffffffffff166318160ddd6040518163ffffffff1660e01b8152600401602060405180830381865afa1580156103d1573d6000803e3d6000fd5b505050506040513d601f19601f820116820180604052508101906103f5919061137f565b8210610436576040517f08c379a000000000000000000000000000000000000000000000000000000000815260040161042d906113f8565b60405180910390fd5b60066000838152602001908152602001600020549050919050565b600061045c82610aee565b61049b576040517f08c379a000000000000000000000000000000000000000000000000000000000815260040161049290611464565b60405180910390fd5b60006002600084815260200190815260200160002060009054906101000a900473ffffffffffffffffffffffffffffffffffffffff169050600073ffffffffffffffffffffffffffffffffffffffff168173ffffffffffffffffffffffffffffffffffffffff1603610542576040517f08c379a0000000000000000000000000000000000000000000000000000000008152600401610539906114f6565b60405180910390fd5b80915050919050565b60008073ffffffffffffffffffffffffffffffffffffffff168273ffffffffffffffffffffffffffffffffffffffff16036105bb576040517f08c379a00000000000000000000000000000000000000000000000000000000081526004016105b2906114f6565b60405180910390fd5b600360008373ffffffffffffffffffffffffffffffffffffffff1673ffffffffffffffffffffffffffffffffffffffff168152602001908152602001600020549050919050565b6060600180546106119061129e565b80601f016020809104026020016040519081016040528092919081815260200182805461063d9061129e565b801561068a5780601f1061065f5761010080835404028352916020019161068a565b820191906000526020600020905b81548152906001019060200180831161066d57829003601f168201915b5050505050905090565b600981815481106106a457600080fd5b9060005260206000200160009150905080546106bf9061129e565b80601f01602080910402602001604051908101604052809291908181526020018280546106eb9061129e565b80156107385780601f1061070d57610100808354040283529160200191610738565b820191906000526020600020905b81548152906001019060200180831161071b57829003601f168201915b505050505081565b600a816040516107509190611552565b908152602001604051809103902060009054906101000a900460ff16156107ac576040517f08c379a00000000000000000000000000000000000000000000000000000000081526004016107a3906115b5565b60405180910390fd5b6009819080600181540180825580915050600190039060005260206000200160009091909190915090816107e09190611781565b50600060016009805490506107f59190611882565b90506108013382610b60565b6001600a836040516108139190611552565b908152602001604051809103902060006101000a81548160ff0219169083151502179055505050565b600073ffffffffffffffffffffffffffffffffffffffff168273ffffffffffffffffffffffffffffffffffffffff16036108ab576040517f08c379a00000000000000000000000000000000000000000000000000000000081526004016108a290611902565b60405180910390fd5b8273ffffffffffffffffffffffffffffffffffffffff163073ffffffffffffffffffffffffffffffffffffffff16636352211e836040518263ffffffff1660e01b81526004016108fb9190610f21565b602060405180830381865afa158015610918573d6000803e3d6000fd5b505050506040513d601f19601f8201168201806040525081019061093c9190611937565b73ffffffffffffffffffffffffffffffffffffffff1614610992576040517f08c379a0000000000000000000000000000000000000000000000000000000008152600401610989906119b0565b60405180910390fd5b816002600083815260200190815260200160002060006101000a81548173ffffffffffffffffffffffffffffffffffffffff021916908373ffffffffffffffffffffffffffffffffffffffff160217905550600360008473ffffffffffffffffffffffffffffffffffffffff1673ffffffffffffffffffffffffffffffffffffffff1681526020019081526020016000206000815480929190610a34906119d0565b9190505550600360008373ffffffffffffffffffffffffffffffffffffffff1673ffffffffffffffffffffffffffffffffffffffff1681526020019081526020016000206000815480929190610a89906119f9565b9190505550808273ffffffffffffffffffffffffffffffffffffffff168473ffffffffffffffffffffffffffffffffffffffff167fddf252ad1be2c89b69c2b068fc378daa952ba7f163c4a11628f55a4df523b3ef60405160405180910390a4505050565b6000806002600084815260200190815260200160002060009054906101000a900473ffffffffffffffffffffffffffffffffffffffff169050600073ffffffffffffffffffffffffffffffffffffffff168173ffffffffffffffffffffffffffffffffffffffff161415915050919050565b610b6a8282610b81565b610b7381610d40565b610b7d8282610d89565b5050565b600073ffffffffffffffffffffffffffffffffffffffff168273ffffffffffffffffffffffffffffffffffffffff1603610bf0576040517f08c379a0000000000000000000000000000000000000000000000000000000008152600401610be790611ab3565b60405180910390fd5b610bf981610aee565b15610c39576040517f08c379a0000000000000000000000000000000000000000000000000000000008152600401610c3090611b1f565b60405180910390fd5b816002600083815260200190815260200160002060006101000a81548173ffffffffffffffffffffffffffffffffffffffff021916908373ffffffffffffffffffffffffffffffffffffffff160217905550600360008373ffffffffffffffffffffffffffffffffffffffff1673ffffffffffffffffffffffffffffffffffffffff1681526020019081526020016000206000815480929190610cdb906119f9565b9190505550808273ffffffffffffffffffffffffffffffffffffffff16600073ffffffffffffffffffffffffffffffffffffffff167fddf252ad1be2c89b69c2b068fc378daa952ba7f163c4a11628f55a4df523b3ef60405160405180910390a45050565b6005805490506006600083815260200190815260200160002081905550600581908060018154018082558091505060019003906000526020600020016000909190919091505550565b600760008373ffffffffffffffffffffffffffffffffffffffff1673ffffffffffffffffffffffffffffffffffffffff168152602001908152602001600020805490506008600083815260200190815260200160002081905550600760008373ffffffffffffffffffffffffffffffffffffffff1673ffffffffffffffffffffffffffffffffffffffff1681526020019081526020016000208190806001815401808255809150506001900390600052602060002001600090919091909150555050565b600081519050919050565b600082825260208201905092915050565b60005b83811015610e87578082015181840152602081019050610e6c565b83811115610e96576000848401525b50505050565b6000601f19601f8301169050919050565b6000610eb882610e4d565b610ec28185610e58565b9350610ed2818560208601610e69565b610edb81610e9c565b840191505092915050565b60006020820190508181036000830152610f008184610ead565b905092915050565b6000819050919050565b610f1b81610f08565b82525050565b6000602082019050610f366000830184610f12565b92915050565b6000604051905090565b600080fd5b600080fd5b600073ffffffffffffffffffffffffffffffffffffffff82169050919050565b6000610f7b82610f50565b9050919050565b610f8b81610f70565b8114610f9657600080fd5b50565b600081359050610fa881610f82565b92915050565b610fb781610f08565b8114610fc257600080fd5b50565b600081359050610fd481610fae565b92915050565b600080600060608486031215610ff357610ff2610f46565b5b600061100186828701610f99565b935050602061101286828701610f99565b925050604061102386828701610fc5565b9150509250925092565b6000806040838503121561104457611043610f46565b5b600061105285828601610f99565b925050602061106385828601610fc5565b9150509250929050565b60006020828403121561108357611082610f46565b5b600061109184828501610fc5565b91505092915050565b6110a381610f70565b82525050565b60006020820190506110be600083018461109a565b92915050565b6000602082840312156110da576110d9610f46565b5b60006110e884828501610f99565b91505092915050565b600080fd5b600080fd5b7f4e487b7100000000000000000000000000000000000000000000000000000000600052604160045260246000fd5b61113382610e9c565b810181811067ffffffffffffffff82111715611152576111516110fb565b5b80604052505050565b6000611165610f3c565b9050611171828261112a565b919050565b600067ffffffffffffffff821115611191576111906110fb565b5b61119a82610e9c565b9050602081019050919050565b82818337600083830152505050565b60006111c96111c484611176565b61115b565b9050828152602081018484840111156111e5576111e46110f6565b5b6111f08482856111a7565b509392505050565b600082601f83011261120d5761120c6110f1565b5b813561121d8482602086016111b6565b91505092915050565b60006020828403121561123c5761123b610f46565b5b600082013567ffffffffffffffff81111561125a57611259610f4b565b5b611266848285016111f8565b91505092915050565b7f4e487b7100000000000000000000000000000000000000000000000000000000600052602260045260246000fd5b600060028204905060018216806112b657607f821691505b6020821081036112c9576112c861126f565b5b50919050565b7f4f776e657220696e646578206973206f7574206f6620626f756e647321000000600082015250565b6000611305601d83610e58565b9150611310826112cf565b602082019050919050565b60006020820190508181036000830152611334816112f8565b9050919050565b7f4e487b7100000000000000000000000000000000000000000000000000000000600052603260045260246000fd5b60008151905061137981610fae565b92915050565b60006020828403121561139557611394610f46565b5b60006113a38482850161136a565b91505092915050565b7f476c6f62616c20696e646578206973206f7574206f6620626f756e6473210000600082015250565b60006113e2601e83610e58565b91506113ed826113ac565b602082019050919050565b60006020820190508181036000830152611411816113d5565b9050919050565b7f546f6b656e20686173206e6f7420796574206265656e206d696e746564000000600082015250565b600061144e601d83610e58565b915061145982611418565b602082019050919050565b6000602082019050818103600083015261147d81611441565b9050919050565b7f4552433732313a206f776e657220717565727920666f72206e6f6e2d6578697360008201527f74656e7420746f6b656e00000000000000000000000000000000000000000000602082015250565b60006114e0602a83610e58565b91506114eb82611484565b604082019050919050565b6000602082019050818103600083015261150f816114d3565b9050919050565b600081905092915050565b600061152c82610e4d565b6115368185611516565b9350611546818560208601610e69565b80840191505092915050565b600061155e8284611521565b915081905092915050565b7f4572726f723a206b727970746f4269726420616c726561647920657869737473600082015250565b600061159f602083610e58565b91506115aa82611569565b602082019050919050565b600060208201905081810360008301526115ce81611592565b9050919050565b60008190508160005260206000209050919050565b60006020601f8301049050919050565b600082821b905092915050565b6000600883026116377fffffffffffffffffffffffffffffffffffffffffffffffffffffffffffffffff826115fa565b61164186836115fa565b95508019841693508086168417925050509392505050565b6000819050919050565b600061167e61167961167484610f08565b611659565b610f08565b9050919050565b6000819050919050565b61169883611663565b6116ac6116a482611685565b848454611607565b825550505050565b600090565b6116c16116b4565b6116cc81848461168f565b505050565b5b818110156116f0576116e56000826116b9565b6001810190506116d2565b5050565b601f82111561173557611706816115d5565b61170f846115ea565b8101602085101561171e578190505b61173261172a856115ea565b8301826116d1565b50505b505050565b600082821c905092915050565b60006117586000198460080261173a565b1980831691505092915050565b60006117718383611747565b9150826002028217905092915050565b61178a82610e4d565b67ffffffffffffffff8111156117a3576117a26110fb565b5b6117ad825461129e565b6117b88282856116f4565b600060209050601f8311600181146117eb57600084156117d9578287015190505b6117e38582611765565b86555061184b565b601f1984166117f9866115d5565b60005b82811015611821578489015182556001820191506020850194506020810190506117fc565b8683101561183e578489015161183a601f891682611747565b8355505b6001600288020188555050505b505050505050565b7f4e487b7100000000000000000000000000000000000000000000000000000000600052601160045260246000fd5b600061188d82610f08565b915061189883610f08565b9250828210156118ab576118aa611853565b5b828203905092915050565b7f4c6f636174696f6e2061646472657373206973206e6f74206578697374730000600082015250565b60006118ec601e83610e58565b91506118f7826118b6565b602082019050919050565b6000602082019050818103600083015261191b816118df565b9050919050565b60008151905061193181610f82565b92915050565b60006020828403121561194d5761194c610f46565b5b600061195b84828501611922565b91505092915050565b7f4e6f7420612076616c6964206164647265737300000000000000000000000000600082015250565b600061199a601383610e58565b91506119a582611964565b602082019050919050565b600060208201905081810360008301526119c98161198d565b9050919050565b60006119db82610f08565b9150600082036119ee576119ed611853565b5b600182039050919050565b6000611a0482610f08565b91507fffffffffffffffffffffffffffffffffffffffffffffffffffffffffffffffff8203611a3657611a35611853565b5b600182019050919050565b7f4552433732313a206d696e74696e6720746f20746865207a65726f206164647260008201527f6573730000000000000000000000000000000000000000000000000000000000602082015250565b6000611a9d602383610e58565b9150611aa882611a41565b604082019050919050565b60006020820190508181036000830152611acc81611a90565b9050919050565b7f4552433732313a20746f6b656e2020616c726561647920657869737400000000600082015250565b6000611b09601c83610e58565b9150611b1482611ad3565b602082019050919050565b60006020820190508181036000830152611b3881611afc565b905091905056fea2646970667358221220aaf36850af9cef247f681c97191e58300b091dddf8a0c1e652f6e1029fd4f9f964736f6c634300080f0033",
  "immutableReferences": {},
  "source": "// SPDX-License-Identifier: MIT\npragma solidity >=0.4.22 <0.9.0;\n\nimport \"./ERC721Connector.sol\";\n\ncontract KryptoBird is ERC721Connector {\n    // array to store our nfts\n    string[] public KryptoBirdz;\n    mapping(string => bool) _kryptoBirdzExists;\n\n    function mint(string memory _kryptoBird) public {\n        require(\n            !_kryptoBirdzExists[_kryptoBird],\n            \"Error: kryptoBird already exists\"\n        );\n        KryptoBirdz.push(_kryptoBird);\n        uint256 _id = KryptoBirdz.length - 1;\n\n        _mint(msg.sender, _id);\n        _kryptoBirdzExists[_kryptoBird] = true;\n    }\n\n    constructor() ERC721Connector(\"KryptoBird\", \"JAY\") {}\n}\n",
  "sourcePath": "C:\\Users\\gaman\\Desktop\\nft\\src\\contracts\\KryptoBirdz.sol",
  "compiler": {
    "name": "solc",
    "version": "0.8.15+commit.e14f2714.Emscripten.clang"
  },
  "schemaVersion": "3.4.7",
  "updatedAt": "2022-06-18T09:45:32.675Z",
  "networkType": "ethereum",
  "devdoc": {
    "kind": "dev",
    "methods": {
      "balanceOf(address)": {
        "params": {
          "_owner": "An address for whom to query the balance"
        },
        "returns": {
          "_0": "The number of NFTs owned by `_owner`, possibly zero"
        }
      },
      "ownerOf(uint256)": {
        "params": {
          "_tokenId": "The identifier for an NFT"
        },
        "returns": {
          "_0": "The address of the owner of the NFT"
        }
      },
      "totalSupply()": {
        "returns": {
          "_0": "A count of valid NFTs tracked by this contract, where each one of  them has an assigned and queryable owner not equal to the zero address"
        }
      }
    },
    "version": 1
  },
  "userdoc": {
    "kind": "user",
    "methods": {
      "totalSupply()": {
        "notice": "Count NFTs tracked by this contract"
      }
    },
    "version": 1
  }
}